:0400000024EF00F0F9
:060008005C82EDEF09F03F
:100018005C80D8CF42F0E8CF43F0E0CF44F0F2A4C0
:1000280007D0C10ED76E600ED66EF294EBEC09F0D5
:1000380044C0E0FF43C0E8FF42C0D8FF5C90100016
:1000480090EF07F01C5001E14BD11B50CFEC09F0A9
:10005800516E220E516444D1C584380E4E6EFF0E87
:100068004F6E1CC050F061EC09F0720E4E6EFF0E20
:100078004F6EC5CF50F061EC09F01C6A1806192ABA
:10008800050E191801E1196A20EE04F00550D92669
:100098000650DA22DE50DE10D8B4120020EE04F04A
:1000A8000550D9260650DA22DECF51F0DDCF52F0C6
:1000B80051C0D9FF52C0DAFF020EDF6E020C185091
:1000C80001E112001950070DF350600F516E51C035
:1000D80005F0066A20EE06F00550D9260650DA2209
:1000E800DF50516E51C009F00A6AE9EC09F01B6E45
:1000F8001E6A1A6A09C0D9FF0AC0DAFFDF50176EF4
:1001080020EE01F00950D9260A50DA22DF50146E89
:1001180020EE02F00950D9260A50DA22DF50166E76
:1001280020EE03F00950D9260A50DA22DF50156E66
:1001380005C0D9FF06C0DAFFDECF07F0DDCF08F033
:1001480020EE02F00550D9260650DA22DECF0BF059
:10015800DDCF0CF0020E1C6EC7A403D0516A512AE1
:1001680001D0516AC5501F0B511001E01200030E57
:100178001C6EC580C5B01200040E1C6E17C01DF0A1
:10018800C4EC06F0536E535001E11200530403E12E
:10019800010E1C6E010C050E1C6E14C01DF0C4EC83
:1001A80006F0536E535001E112005304F1E01504B8
:1001B8000BE10B0E1C6E0BC0D9FF0CC0DAFFDF5031
:1001C8001D6E0B4A0C2A1200070E1C6EC582C5A2B2
:1001D80005D0A1A61200A196C584DAD7080E1C6E18
:1001E800175001091D6EC4EC06F0536E535001E11F
:1001F80012005304CDE0090E1C6E51EC06F0536E4C
:10020800535001E112005304C3E0C5840A0E1C6E6A
:10021800C5B4120020EE02F00950D9260A50DA229D
:10022800DF50536E040E0926000E0A2209C0D9FFBA
:100238000AC0DAFFDE2819E0155007E15350010D16
:1002480005C0D9FF06C0DAFF08D05350010D20EED3
:1002580002F00550D9260650DA22F350DE26F45073
:10026800DD22E9EC09F01B6E93D71C6A1806192ADF
:10027800050E191801E1196A20EE04F00550D92677
:100288000650DA22DE50DE10D8B4120020EE04F058
:100298000550D9260650DA22DECF51F0DDCF52F0D4
:1002A80051C0D9FF52C0DAFF010EDF6E010CC4EC59
:1002B80006F0536E535001E11200530401E168D770
:1002C800162E04D0C5840A0E1C6E0A0C0BC0D9FF6A
:1002D8000CC0DAFFDF501D6E0B4A0C2AF5EF06F052
:1002E8001C5001E1ECD6010A01E104D7030A01E13F
:1002F80033D7010A01E13ED7070A01E141D7010AD4
:1003080001E14DD7020A01E162D70F0A01E16BD77B
:10031800010A01E172D7030A01E17AD7010AC7E0AD
:10032800120020D1205001E112002250070D000ECA
:10033800F3240D6E010EF4200E6E010E216E54D0C2
:1003480020EE05F00D50D9260E50DA22DF50316E1E
:10035800326A20EE01F00D50D9260E50DA22310E05
:10036800DE6E000EDD6E120020EE05F00D50D9266F
:100378000E50DA22DECF45F0DDCF46F0310E476E63
:10038800486A65EC07F00D0E356E0A0E366E376A50
:10039800120020EE05F00D50D9260E50DA22DECFDD
:1003A80045F0DDCF46F0310E476E486A65EF07F03D
:1003B800310E456E20EE05F00D50D9260E50DA228A
:1003C800DF502AEC08F00D0E336E0A0E346E356AD3
:1003D8001200310E456E20EE05F00D50D9260E5054
:1003E800DA22DF502AEF08F00DC0D9FF0EC0DAFF7D
:1003F800DF50010AA5E0050AB7E0010ACAE0030ACE
:10040800D7E0010AD8A41200E4D7ACA212000DC0AC
:10041800D9FF0EC0DAFFDF50506E030E501835E1D9
:1004280020EE01F00D50D9260E50DA22DECFF6FF6D
:10043800DECFF7FF0F0EF76403D00800F55005D0A4
:10044800F6CFE1FFF7CFE2FFE750AD6E20EE01F007
:100458000D50D9260E50DA22DE2A000EDD2220EEBB
:1004680001F00D50D9260E50DA22DECFF6FFDECF8E
:10047800F7FF0F0EF76403D00800F55005D0F6CF4C
:10048800E1FFF7CFE2FFE75034D020EE01F00D5046
:10049800D9260E50DA22DECFF6FFDECFF7FF0F0E99
:1004A800F76403D00800F55005D0F6CFE1FFF7CF89
:1004B800E2FFE750AD6E20EE01F00D50D9260E5048
:1004C800DA22DE2A000EDD2220EE01F00D50D926B8
:1004D8000E50DA22DECFF6FFDECFF7FF0F0EF764FD
:1004E80003D00800F55005D0F6CFE1FFF7CFE2FFC3
:1004F800E7504F6E4F50D8A41200030E506410D02E
:100508000DC0D9FF0EC0DAFFDF6E20EE01F00D50EE
:10051800D9260E50DA22310EDE6E000EDD6E120084
:10052800216A2006222A220E221801E1226A20EEE0
:1005380003F00D50D9260E50DA22DE50DE10D8B462
:10054800120020EE03F00D50D9260E50DA22DECF2D
:100558004DF0DDCF4EF04DC0D9FF4EC0DAFF010E91
:10056800DF6E010C215001E1DDD6010A01E14DD712
:10057800120020EE01F00150D9260250DA22700E46
:10058800DE1819E1D80E4E6EFF0E4F6E80CF50F078
:1005980061EC09F0E40E4E6EFF0E4F6E81CF50F005
:1005A80061EC09F0F00E4E6EFF0E4F6E82CF50F0E8
:1005B80061EC09F0010C20EE01F00150D92602503F
:1005C800DA22640EDE1819E1D00E4E6EFF0E4F6E61
:1005D80092CF50F061EC09F0DC0E4E6EFF0E4F6EBC
:1005E80093CF50F061EC09F0E80E4E6EFF0E4F6E9F
:1005F80094CF50F061EC09F0010C20EE01F00150AD
:10060800D9260250DA226C0EDE1819E1D40E4E6E8D
:10061800FF0E4F6E89CF50F061EC09F0E00E4E6E80
:10062800FF0E4F6E8ACF50F061EC09F0EC0E4E6E63
:10063800FF0E4F6E8BCF50F061EC09F0010C20EEED
:1006480001F00150D9260250DA226D0EDE1824E19D
:10065800030E0124496E000E02204A6ED4EC03F00A
:100668004950556E0F0E4A14566E950E4E6EFF0E7B
:100678004F6E55C050F056C051F047EC09F07A0E55
:100688004E6EFF0E4F6E55C0D9FF56C0DAFFDF50D1
:10069800506E61EC09F0010C010C010E596E73D01B
:1006A800115001E11200116A01C0D9FF02C0DAFF3E
:1006B800610EDE1804E1000EBEEC08F062D001C045
:1006C800D9FF02C0DAFF640EDE1865E001C0D9FF69
:1006D80002C0DAFF6D0EDE180DE120EE01F00150C8
:1006E800D9260250DA22640EDE1804E1000E46EC28
:1006F80004F047D001C0D9FF02C0DAFF720EDE183D
:1007080003E1BDEC02F03DD001C0D9FF02C0DAFF21
:10071800730EDE180CE120EE01F00150D9260250CC
:10072800DA22740EDE1803E1FCEC06F034D001C0C6
:10073800D9FF02C0DAFF740EDE1803E1BDEC05F044
:1007480020D001C0D9FF02C0DAFF760EDE1803E11F
:1007580048EC08F016D001C0D9FF02C0DAFF7A0EC3
:10076800DE1819E1000E92EC08F00BD0010E46ECF1
:1007780004F007D0010EBEEC08F003D0010E92EC95
:1007880008F0596E08D012508BE0010AEFE0030A16
:10079800F1E0010AF3E05904D8B4E4EC09F01200DE
:1007A80007D04E6A13D0040E01D0080E4E6E0ED03C
:1007B80049C045F04AC046F0D4EC08F04650F5E18F
:1007C8004550010AEEE0030AEEE0EFD7516A4F6A9E
:1007D800506A48D051504924D96E000E4A20DA6E2A
:1007E800DF50526E536A535003E1300E525C07E3F8
:1007F800535005E13A0E525C02E2300E17D05350C6
:1008080003E1410E525C07E3535005E1470E525C89
:1008180002E2370E0BD0535003E1610E525C0AE33B
:10082800535008E1670E525C05E2570E525E000E07
:10083800535A02D0526A536A4EC04BF052C04CF021
:1008480053C04DF04B2A03D0D8904C364D364B2E22
:10085800FBD74F504C104F6E50504D10506E512AD0
:10086800040E4E5E51504924D96E000E4A20DA6EAD
:10087800DF5003E0020E5164ADD74FC049F050C0BD
:100888004AF01200546E556A5ED0030E0124496E78
:10089800000E02204A6ED4EC03F04950036E0F0E8E
:1008A8004A14046E106A010E126E3E6E3E044FE149
:1008B800950E4E6EFF0E4F6E03C050F004C051F0FF
:1008C80047EC09F07A0E4E6EFF0E4F6E03C0D9FF4B
:1008D80004C0DAFFDF50506E6DEC09F0034A042AB9
:1008E800566A9C0E4E6EFF0E4F6E03C0D9FF04C0B1
:1008F800DAFFDF50506E6DEC09F0034A042A562ADD
:100908000E0E5664EED7D30E456EFE0E466E3E0EA4
:10091800476E486A4A6A496A020E10EC06F0102AC5
:10092800040E101814E1126A03C045F004C046F022
:10093800020E0124476E000E0220486E65EC07F097
:10094800010E556E04D05450A0E0010AAFE0555096
:1009580012005BD09EAA1200AECF24F00D0E241810
:1009680003E00A0E24181BE1F80E4E6EFF0E4F6EC0
:10097800A6EC09F025509E0FD96EDA6A000EDF6EDC
:10098800255007E0256A236A010E266E9E0EBBEFEE
:1009980009F0CC0E4E6EFF0E4F6EA6EF09F0080E52
:1009A800241803E07F0E24180BE12550D8B4120058
:1009B800C80E4E6EFF0E4F6EA6EC09F0250612000B
:1009C8001F0E24641F0C7F0E24607F0C245085ECBE
:1009D80009F025509E0FD96EDA6A24C0DFFF252A58
:1009E800140E2564140CEAD72304D8A41200F80EB8
:1009F8004E6EFF0E4F6EA6EC09F0CC0E4E6EFF0E3B
:100A08004F6EA6EC09F0266A12002650A3E0010AF0
:100A1800EBE01200496A4A6A4B6A4C6A05D0494AB7
:100A28004A2A454A462A2BD045C0F6FF46C0F7FF5A
:100A38000800F550090A07E0290A05E00B0AF1E069
:100A4800060AEDE01CD0454A462AEED70A0E4B02AC
:100A5800F3CF47F0F4CF48F04C02F350482645C096
:100A6800F6FF46C0F7FF0800F5504726000E48225B
:100A7800D00E47244B6EFF0E48204C6ED2D745C08F
:100A8800F6FF46C0F7FF2F0E0800F56408D045C0F2
:100A9800F6FF46C0F7FF390E0800F564D7D749506E
:100AA8004A1005E14BC045F04CC046F012004BC05F
:100AB80047F04CC048F0471E481E474A482A47C0DE
:100AC80045F048C046F012003FC053F053504FE085
:100AD800020E53180FE14A0E4E6EFF0E4F6EA6EC33
:100AE80009F0580E4E6EFF0E4F6E27C050F061ECA5
:100AF80009F03DD02AC051F0070E51165104526E2C
:100B0800070E526401D0526A5250020DF350C30FBF
:100B1800D96EDA6ADECF45F0DDCF46F0830EE8EC19
:100B280008F0880E456E2C5063EC08F08B0E456E6D
:100B38002B5063EC08F08E0E456E200E63EC08F027
:100B4800900E456E2D5063EC08F0950E456E2950B9
:100B580063EC08F0980E456E285063EC08F09B0E85
:100B6800456E275063EC08F0830E9BEC09F0535058
:100B7800120020EE01F00150D9260250DA22310E7F
:100B8800DE1832E1F40E456EFF0E466E0EEC05F0EF
:100B980045C055F046C056F0900E4E6EFF0E4F6E93
:100BA80055C050F056C051F03AEC09F0C20E456EEF
:100BB800FF0E466E0EEC05F045C055F046C056F0E7
:100BC800D80E55180AE1EE0E561807E1650E4E6E5E
:100BD800FF0E4F6EA6EC09F0010CB50E4E6EFE0E20
:100BE8004F6EA6EC09F0010C20EE01F00150D92659
:100BF8000250DA22320EDE180EE100CB53F001CBA0
:100C080054F07D0E4E6EFF0E4F6E53C050F054C020
:100C180051F03AEC09F0010C4B6E220E2018D8B4B2
:100C280012001F50070D000EF3244C6E010EF42025
:100C38004D6E202A1F2A220E1F1801E11F6A20EE7E
:100C480005F04C50D9264D50DA2249C0DEFF4AC083
:100C5800DDFF4CC0D9FF4DC0DAFF4BC0DFFF20EEEF
:100C680001F04C50D9264D50DA2245C0DEFF46C06F
:100C7800DDFF20EE03F04C50D9264D50DA2247C054
:100C8800DEFF48C0DDFF47504810D8B4120047C007
:100C9800D9FF48C0DAFFDF6A000C2FD0C586010EE5
:100CA8001A6EC7B006D0C9EC09F0E806D8B4010C32
:100CB800000C020E1A6E07C0D9FF08C0DAFFC9CFB0
:100CC800DFFF074A082A1606C5B6000CC9EC09F06A
:100CD800E80601E1010C165002E1C58A01D0C59A67
:100CE800C588040E1A6EC5B8000C165002E11A6ABF
:100CF800020CC586010E1A6E000C1A50CFE0010ACC
:100D0800D0E0030AE1E0060AD8A4000CECD7050EEF
:100D18001818D8B412001350070DF350600F4D6E19
:100D2800182A132A050E131801E1136A4D50D96EBB
:100D3800DA6A45C0DEFF46C0DDFF4D50D96EDA6A7B
:100D4800020ED92647C0DEFF48C0DDFF4D50D96EE0
:100D5800DA6A040ED92649C0DEFF4AC0DDFF4D50CD
:100D6800D96EDA6A060ED9264BC0DFFF49504A1001
:100D7800D8B4120049C0D9FF4AC0DAFFDF6A000CB4
:100D880030D0C7A403D0456A452A01D0456AC5506A
:100D98001F0B451001E0000CC9CF46F01DC0C9FF6C
:100DA800C6AE04D0C9CF46F0C69E000C010E1E6E1A
:100DB800C7A006D0A1A6000CA196C5841E6A010C86
:100DC800020E1E6EC7A403D0456A452A01D0456AA3
:100DD800C5501F0B451001E0000CC5BCEED71E6ABC
:100DE800020C1E50CEE0010AE3E0030AEBE0020C1D
:100DF80001C045F002C046F0D4EC08F0020E4518D8
:100E0800461006E1D60E4E6EFE0E4F6EA6EF09F0A6
:100E1800030E576E566A57500124546E000E022076
:100E2800556E020E5424D96E000E5520DA6EDF6A14
:100E380057500124496E000E02204A6ED4EC03F08C
:100E48005650380FD96EDA6A49C0DFFF562A030EAA
:100E58005726130E5764DFD7380EE1EF07F0B1ECD1
:100E680009F0B9EC07F0E1EC09F0DAEC09F00EEC66
:100E780009F090EC09F01EEC09F0D5EC09F0DEEC75
:100E880009F0E7EC09F079EC09F0C2EC09F02DEC77
:100E980009F0D58EE9EC09F00001F76F0001F75170
:100EA800CFEC09F05A6E630E5A64F8D748EC08F094
:100EB80095EC01F0ADEC04F051EC03F026EC00F0F9
:100EC800F7D7030E4C6E45C049F00F0E491649502E
:100ED800B30FD96EDA6A4CC04AF04B6A4ABE4B0669
:100EE8004A504724E16E4B504820E26EDFCFE7FFBF
:100EF800453A463A0F0E45164650F00B45120F0E6E
:100F080046164C064CAEDFD720EE04F04750D926E3
:100F18004850DA22DF6A000C01EE00F0EE0EEE6AAD
:100F2800E806FDE100EE60F0530EEE6AE806FDE12A
:100F380000EE01F0410EEE6AE806FDE1100EF66ED5
:100F4800100EF76E000EF86E00EEB3F010EE44F0DF
:100F58000900F5CFEEFFE550E150FAE15C905C92B4
:100F6800000EF86E000133EF07F0C26AC16AC06A6A
:100F7800606A0F01386B896A926892909292929493
:100F880092969298929A929C929E396B8A6A9368EA
:100F980093909392939493969398939A939C939EF9
:100FA8003A6B180E8B6E94689490949294949486ED
:100FB8009488949A949C948E12004E6E4F6A4E5068
:100FC8004F24D96EDA6A4F50F10FE16EE26ADFCF33
:100FD800E7FF4F2A050E4F64F2D7456A466AF00EBE
:100FE800476E486A496A4A6AD90E4B6E8BEC06F01E
:100FF800456A466A410E476E486A400E496E4A6A1B
:10100800E10E4B6E8BEF06F0303132333435363724
:101018003839414243444546B0FFAAFF9EFF98FF36
:10102800BCFFA4FFB6FFD0000700FFFFFFFFD00002
:101038000701FFFFFFFFD0000101FFFFFFFF80381E
:10104800120331011780000000000000476E010EF6
:10105800486E47C046F00F0E46164650B30FD96E7D
:10106800DA6A45504824E16EE26ADFCFE7FF473A83
:101078000F0E4716480648AEECD74550D96EDA6AC7
:10108800020ED926DF6A000CD30E4E6EFE0E4F6E8E
:10109800A6EC09F0100E4E6EFF0E4F6E060E506E47
:1010A8006DEC09F0FB0E4E6EFF0E4F6EA6EC09F0CC
:1010B800250E4E6EFF0E4F6EA6EC09F0010C476E22
:1010C800010E486E47C046F00F0E46164650B30F45
:1010D800D96EDA6A45504824E16EE26ADFCFE7FF4D
:1010E800473A0F0E4716480648BE0F0CEBD7456A1D
:1010F800466AE90E476E486A496A4A6AD90E4B6ED3
:101108008BEC06F0456A466A410E476E486A400E07
:10111800496E4A6AE10E4B6E8BEF06F0516E526AC9
:101128000DD07BEC08F0030E126E0CD0A8EC08F082
:10113800000908E0126A010E526E04D05150F1E025
:10114800010AF4E05250120040C050F0505010E034
:10115800020E501807E14A0E4E6EFF0E4F6EA6ECB7
:1011680009F006D0870E4E6EFF0E4F6EA6EC09F002
:1011780050501200546E556A0DD054EC09F0020E0E
:10118800126E0CD068EC05F0000908E0126A010E36
:10119800556E04D05450F1E0010AF4E055501200A5
:1011A80045C047F046C048F002D0474A482A47C0E1
:1011B800D9FF48C0DAFFDF50F8E14550475C456E7B
:1011C80046504858466E1200486E48C047F003D053
:1011D800472A454A462A45C0F6FF46C0F7FF47500A
:1011E800D96EDA6A0800F5CFDFFFDF50F1E11200AF
:1011F800496E49C04AF006D04A50D96EDA6A45C0ED
:10120800DFFF4A2A4706D8A048064728F5E14828BC
:10121800F3E11200010E466EA10E456EAC6AAB6A90
:10122800B86AB886A10EAF6E46C0B0FFAC8AAB886C
:10123800AB8EA10CF80ED516D586D598D59AD59C27
:10124800D59EC10ED76E600ED66EF194F294F28AD6
:10125800600C466A456A486A230E476E600EFCECCD
:1012680008F0186A136A196A1C6A12004EC045F021
:101278004FC046F0476A486A50C049F051C04AF02A
:10128800040E10EF06F04EC045F04FC046F0476A16
:10129800486A50C049F051C04AF0050E10EF06F0F8
:1012A800276A270E456E466A476A486A3F0E496EA6
:1012B8004A6AD10E4B6E8BEF06F04EC045F04FC018
:1012C80046F0476A486A50C049F04A6A060E10EF6D
:1012D80006F04EC045F04FC046F0476A486A50C015
:1012E80049F04A6A070E10EF06F0116A126A980E62
:1012F8005B6EBC0E0B01006FDE0E016FAF0E026F4E
:10130800AF0C4E6E456A466A476A486A4EC049F055
:101318004A6A010E10EF06F0C66AC56AC650F00B9D
:101328000809C66EC78EC68A270EC86E270C4E6E71
:101338004EC045F0466A476A486A4A6A496A030ED7
:1013480010EF06F04EC045F04FC046F0476A486AB5
:101358004A6A496A020E10EF06F0D39E700ED31245
:10136800FC0ED316D298D296D2949B8CFC0C456E68
:1013780045C001F0026A010E116E010CF50E456EB2
:10138800FE0E466E830EE8EF08F0A1A6000CA196AB
:10139800C5841A6A010C456E0FC046F04550465C7C
:1013A8001200206A1F6A226A216A1200D08EF28E09
:1013B800F28C1200256A266A1200616AF18E120008
:1013C800010E236E010C0F6A12000F5012000F2A33
:0613D80012005C921100FE
:10FEB40000436F6E76657273696F6E2064696420A7
:10FEC4006E6F74207969656C64202D343339320D7A
:10FED4000A007374206D696E732068727320776BE7
:10FEE40064617920646179206D6F6E2079720D0AE6
:10FEF40000787878202078782F78782F7878787838
:10FF040020202078783A78783A7878005246505F02
:10FF140050726F6A342056657273696F6E20315F58
:10FF24000030322F31322F323031372031323A34EF
:10FF3400360D0A00544F21206932635F315F7374B8
:10FF44006174653A200054696D656F75742052546C
:10FF540043212100202020206275665B305D3A2019
:10FF6400002D3433393220476F6F640D0A00535328
:10FF74005031434F4E323A20002A307842303020FC
:10FF84003D200053657420446F6E65003435323A69
:10FF940020307800576564202000547565202000C7
:10FFA4004672692020004D6F6E20200053756E202C
:10FFB40020005361742020005468752020002D34E3
:10FFC40033393200082008003E3E2000444120001E
:10FFD4004C41200050412000444220004C4220006B
:10FFE40050422000444320004C4320005043200052
:0CFFF400343532000A0D002C2000000003
:020000040020DA
:08000000FFFFFFFFFFFFFFFF00
:020000040030CA
:0E000000FF18072EFFB181FF0FC00FE00F4069
:00000001FF
