:0400000024EF00F0F9
:060008005582CDEF0DF062
:100018005580D8CF2BF0E8CF2CF0E0CF2DF0F2A40C
:1000280007D0C10ED76E600ED66EF294CBEC0DF0F1
:100038002DC0E0FF2CC0E8FF2BC0D8FF5590100062
:04004800AEEF0CF01B
:1010000000436F6E76657273696F6E206469642049
:101010006E6F74207969656C64202D343339320D1C
:101020000A005246505F50726F6A332056657273E1
:10103000696F6E20315F0030312F32302F32303106
:10104000372031323A33360D0A002D34333932200D
:10105000476F6F640D0A002A3078423030203D20FF
:10106000003435323A203078002D343339320044A0
:101070004120004C41200050412000444220004CBF
:1010800042200050422000444320004C43200050A6
:1010900043200034353200082008003E3E20002C5A
:1010A00020003A20000A0D00000020D1105001E17C
:1010B00012001250070D000EF324056E010EF420ED
:1010C000066E010E116E54D020EE05F00550D926A3
:1010D0000650DA22DF50236E246A20EE01F005501C
:1010E000D9260650DA22230EDE6E000EDD6E1200C7
:1010F00020EE05F00550D9260650DA22DECF2EF07C
:10110000DDCF2FF0230E306E316A36EC0CF00D0E71
:10111000276E0A0E286E296A120020EE05F005508F
:10112000D9260650DA22DECF2EF0DDCF2FF0230EA7
:10113000306E316A36EF0CF0230E2E6E20EE05F085
:101140000550D9260650DA22DF50D1EC0CF00D0EF6
:10115000256E0A0E266E276A1200230E2E6E20EED2
:1011600005F00550D9260650DA22DF50D1EF0CF0F9
:1011700005C0D9FF06C0DAFFDF50010AA5E0050A65
:10118000B7E0010ACAE0030AD7E0010AD8A41200B6
:10119000E4D7ACA2120005C0D9FF06C0DAFFDF50C9
:1011A000396E030E391835E120EE01F00550D926CD
:1011B0000650DA22DECFF6FFDECFF7FF0F0EF76420
:1011C00003D00800F55005D0F6CFE1FFF7CFE2FFDE
:1011D000E750AD6E20EE01F00550D9260650DA2218
:1011E000DE2A000EDD2220EE01F00550D926065041
:1011F000DA22DECFF6FFDECFF7FF0F0EF76403D063
:101200000800F55005D0F6CFE1FFF7CFE2FFE75039
:1012100034D020EE01F00550D9260650DA22DECF78
:10122000F6FFDECFF7FF0F0EF76403D00800F5508E
:1012300005D0F6CFE1FFF7CFE2FFE750AD6E20EE2D
:1012400001F00550D9260650DA22DE2A000EDD22F2
:1012500020EE01F00550D9260650DA22DECFF6FF47
:10126000DECFF7FF0F0EF76403D00800F55005D06E
:10127000F6CFE1FFF7CFE2FFE750386E3850D8A441
:101280001200030E396410D005C0D9FF06C0DAFF82
:10129000DF6E20EE01F00550D9260650DA22230E2B
:1012A000DE6E000EDD6E1200116A1006122A240E88
:1012B000121801E1126A20EE03F00550D9260650FB
:1012C000DA22DE50DE10D8B4120020EE03F0055012
:1012D000D9260650DA22DECF36F0DDCF37F036C021
:1012E000D9FF37C0DAFF010EDF6E010C115001E1AA
:1012F000DDD6010A01E14DD7120020EE01F00150C8
:10130000D9260250DA22700EDE1810E180CF37F0B5
:10131000770E42EC0DF081CF37F0830E42EC0DF0EA
:1013200082CF37F08F0E42EC0DF0010C20EE01F071
:101330000150D9260250DA22640EDE1810E192CF55
:1013400037F06F0E42EC0DF093CF37F07B0E42EC8E
:101350000DF094CF37F0870E42EC0DF0010C20EE2B
:1013600001F00150D9260250DA226C0EDE1810E18D
:1013700089CF37F0730E42EC0DF08ACF37F07F0E35
:1013800042EC0DF08BCF37F08B0E42EC0DF0010CE0
:1013900020EE01F00150D9260250DA226D0EDE183F
:1013A0001EE1030E0124326E000E0220336EF0ECBB
:1013B00009F032503E6E0F0E33143F6E3EC037F0D0
:1013C0003FC038F0660E23EC0DF03EC0D9FF3FC0A1
:1013D000DAFFDF50376EA20E42EC0DF0010C010C6B
:1013E00007D0376A13D0040E01D0080E376E0ED026
:1013F00032C02EF033C02FF0EFEC0CF02F50F5E19F
:101400002E50010AEEE0030AEEE0EFD73A6A386A9E
:10141000396A48D03A503224D96E000E3320DA6E41
:10142000DF503B6E3C6A3C5003E1300E3B5C07E30F
:101430003C5005E13A0E3B5C02E2300E17D03C50C6
:1014400003E1410E3B5C07E33C5005E1470E3B5C8A
:1014500002E2370E0BD03C5003E1610E3B5C0AE325
:101460003C5008E1670E3B5C05E2570E3B5E000E08
:101470003C5A02D03B6A3C6A37C034F03BC035F07E
:101480003CC036F0342A03D0D89035363636342E68
:10149000FBD738503510386E39503610396E3A2A2D
:1014A000040E375E3A503224D96E000E3320DA6EC5
:1014B000DF5003E0020E3A64ADD738C032F039C0D5
:1014C00033F012003D6E3E6A57D0030E0124326E97
:1014D000000E0220336EF0EC09F03250036E0F0E56
:1014E0003314046E086A010E0A6E2A6E2A0448E15B
:1014F00003C037F004C038F0660E23EC0DF003C0D3
:10150000D9FF04C0DAFFDF50376EA20E60EC0DF099
:10151000034A042A3F6A03C0D9FF04C0DAFFDF5040
:10152000376EA00E60EC0DF0034A042A3F2A0E0E1F
:101530003F64F1D71F0E2E6E2E50D8A4100E2F6EC2
:101540002A0E306E316A336A326A020EF5EC0BF005
:10155000082A040E081814E10A6A03C02EF004C019
:101560002FF0020E0124306E000E0220316E36EC98
:101570000CF0010E3E6E04D03D50A7E0010AB6E02B
:101580003E501200366E326A336A346A356A04D0CD
:10159000324A332A362A2AD036C0F6FF100EF76EAA
:1015A0000800F550090A07E0290A05E00B0AF2E0F5
:1015B000060AEEE01BD0362AEFD70A0E3402F3CF2C
:1015C00030F0F4CF31F03502F350312636C0F6FF5B
:1015D000100EF76E0800F5503026000E3122D00EA6
:1015E0003024346EFF0E3120356ED4D736C0F6FF6E
:1015F000100EF76E2F0E0800F56408D036C0F6FF07
:10160000100EF76E390E0800F564D7D7325033103C
:1016100005E134C02EF035C02FF0120034C030F098
:1016200035C031F0301E311E304A312A30C02EF024
:1016300031C02FF012004CD09EAA1200AECF0DF098
:101640000D0E0D1803E00A0E0D1815E1A50E6FEC36
:101650000DF00E50130FD96EDA6A000EDF6E0E50C9
:1016600007E00E6A0B6A010E0F6E130EB0EF0DF05D
:101670009B0E6FEF0DF0080E0D1803E07F0E0D1896
:1016800008E10E50D8B41200970E6FEC0DF00E0664
:1016900012001F0E0D641F0C7F0E0D607F0C0D508D
:1016A00089EC0DF00E50130FD96EDA6A0DC0DFFF12
:1016B0000E2A0F0E0E640F0CEAD70B04D8A41200EA
:1016C000A50E6FEC0DF09B0E6FEC0DF00F6A120083
:1016D0000F50B2E0010AF1E01200010E416E3BD062
:1016E000095001E11200096A01C0D9FF02C0DAFF06
:1016F0006D0EDE180DE120EE01F00150D9260250EA
:10170000DA22640EDE1804E1000E62EC0AF021D049
:1017100001C0D9FF02C0DAFF720EDE1803E17DECD2
:1017200009F017D001C0D9FF02C0DAFF740EDE182D
:1017300003E1B4EC0BF00DD001C0D9FF02C0DAFF19
:10174000760EDE180CE151EC0DF003D0010E62ECC8
:101750000AF0416E04D00A50C3E0010AF7E04104E8
:10176000D8B4C4EC0DF0120020EE01F00150D926DF
:101770000250DA22310EDE1823E1930EC2EC0AF099
:101780002EC03DF02FC03EF03DC037F03EC038F0D7
:10179000610E13EC0DF0690EC2EC0AF02EC03DF0A4
:1017A0002FC03EF0D80E3D1807E1EE0E3E1804E1C2
:1017B0004A0E6FEC0DF0010C010E6FEC0DF0010CF8
:1017C00020EE01F00150D9260250DA22320EDE1846
:1017D0000BE100CB3BF001CB3CF03BC037F03CC011
:1017E00038F0570E13EC0DF0010C346E240E101867
:1017F000D8B412000C50070D000EF324356E010E04
:10180000F420366E102A0C2A240E0C1801E10C6A02
:1018100020EE05F03550D9263650DA2232C0DEFFF0
:1018200033C0DDFF35C0D9FF36C0DAFF34C0DFFF7B
:1018300020EE01F03550D9263650DA222EC0DEFFD8
:101840002FC0DDFF20EE03F03550D9263650DA22C6
:1018500030C0DEFF31C0DDFF30503110D8B412008F
:1018600030C0D9FF31C0DAFFDF6A000C030E356EDD
:101870002EC032F00F0E32163250440FD96EDA6A93
:1018800035C033F0346A33BE340633503024E16E51
:1018900034503120E26EDFCFE7FF2E3A2F3A0F0EA1
:1018A0002E162F50F00B2E120F0E2F16350635AEBA
:1018B000DFD720EE04F03050D9263150DA22DF6A2B
:1018C000000CC26AC16AC06A606A0F01386B896A1B
:1018D000926892909292929492969298929A929CF6
:1018E000929E396B8A6A936893909392939493969D
:1018F0009398939A939C939E3A6B8B6A9468949076
:101900009492949494969498949A949C948E1200A1
:101910009EEC0DF061EC0CF0C1EC0DF0BDEC0DF0A7
:1019200003EC0DF033EC0DF094EC0DF0C7EC0DF082
:101930007DEC0DF0D58EC9EC0DF0436E4350B7EC45
:101940000DF0426E630E4264F9D751EC0DF055EC88
:1019500008F01BEC0BF06DEC0BF0F9D701EE00F08A
:10196000FC0EEE6AE806FDE100EE01F02A0EEE6ADA
:10197000E806FDE1500EF66E1B0EF76E000EF86ED7
:1019800000EE44F010EE10F00900F5CFEEFFE55048
:10199000E150FAE155905592000EF86E000188EF83
:1019A0000CF0306E010E316E30C02FF00F0E2F167E
:1019B0002F50440FD96EDA6A2E503124E16EE26A5C
:1019C000DFCFE7FF303A0F0E3016310631AEECD7DD
:1019D0002E50D96EDA6A020ED926DF6A000C2EC0AC
:1019E00030F02FC031F002D0304A312A30C0D9FF58
:1019F00031C0DAFFDF50F8E12E50305C2E6E2F50F0
:101A000031582F6E1200010E2F6EA10E2E6EAC6A91
:101A1000AB6AB86AB886A10EAF6E2FC0B0FFAC8AB1
:101A2000AB88AB8EA10C396E39C02EF02E50D8A4E5
:101A3000100E2F6E306A316A37C032F038C033F082
:101A4000040EF5EF0BF0396E39C02EF02E50D8A4ED
:101A5000100E2F6E306A316A37C032F038C033F062
:101A6000050EF5EF0BF0F80ED516D586D598D59A5C
:101A7000D59CD59EC10ED76E600ED66EF194F294B1
:101A8000F28A600C386E38C02EF02E50D8A4100E9A
:101A90002F6E306A316A37C032F0336A060EF5EFC6
:101AA0000BF01F0E6FEC0DF0020E376E220E60EC85
:101AB0000DF09F0E6FEC0DF0370E6FEC0DF0010C7A
:101AC000386E38C02EF02E50D8A4100E2F6E306A0B
:101AD000316A37C032F0336A070EF5EF0BF0376E1C
:101AE00037C02EF02E50D8A4100E2F6E306A316AF7
:101AF000336A326A020EF5EF0BF0096A0A6A980E31
:101B0000546EBC0E0B01006FDE0E016FAF0E026F44
:101B1000AF0C376E2E6A2F6A306A316A37C032F0E6
:101B2000336A010EF5EF0BF0106A0C6A126A056A4F
:101B3000066A0E6A0D6A116A0F6A1200D39E700E51
:101B4000D312FC0ED316D298D296D2949B8CFC0C56
:101B500030313233343536373839414243444546E3
:101B60002E6E2EC001F0026A010E096E010C2E6E5F
:101B700007C02FF02E502F5C1200D08EF28EF28C08
:101B80001200616AF18E1200010E0B6E010C076AE1
:0E1B9000120007501200072A12005592110091
:020000040020DA
:08000000FFFFFFFFFFFFFFFF00
:020000040030CA
:0E000000FF18072EFFB181FF0FC00FE00F4069
:00000001FF
